:100000000C9441010C9472010C9472010C947201D5
:100010000C9472010C9472010C9472010C94720194
:100020000C9472010C9472010C9472010C94720184
:100030000C9472010C9472010C9472010C94720174
:100040000C9472010C9472010C9472010C94720164
:100050000C94D5060C9472010C9472010C948B06CE
:100060000C9472010C9472010C9472010C94720144
:100070000C9472010C9472010C9472010C94720134
:100080000C9472010C9472010C9472010C94720124
:100090000C9472010C9472010C9472010C94000780
:1000A0000C9472010C9472010C9472010C94720104
:1000B0000C9472010C9472010C9472010C947201F4
:1000C0000C9472010C9472010C9472010C947201E4
:1000D0000C9472010C9472010C9472010C947201D4
:1000E0000C9472010C94DC010C944D030C94760179
:1000F0000C94F8010C94AB040C9474010C94CB0197
:100100000C9424080C94F6050C9402020C943E0303
:100110000C94D3010C9416050C94CF010C94D601C9
:100120000C9494030C94F4010C94C7010C940602F3
:100130000C9467030C94E0010C943D030C94EA01C9
:100140000C94E6010C94AA040C94FC010C9401029A
:100150000C9460030C94C1010C9475010C94EE0195
:10016000000020002300260029002C002F00320070
:100170000001000003010601090100002100240024
:1001800027002A002D003000330001010000040187
:1001900007010A0100002200250028002B002E0084
:1001A0003100340002010000050108010B010505C2
:1001B0000505070508080808020202020A0A0808DD
:1001C000040404040101010101010101030303030B
:1001D00003030303040707070C0C0C0C0C0C0C0C9A
:1001E0000202020206060606060606060B0B0B0BAB
:1001F0000B0B0B0B010210202008081020401020D0
:1002000040800201020108040201010204081020DA
:1002100040808040201008040201800402018040D8
:100220002010080402010804020101020408102041
:100230004080010204081020408000000A0B0209DF
:100240000C0D0E0807030401000000000000000070
:10025000000000000000000000000000000000009E
:10026000000000000000121110000000000000005B
:10027000000000000000000000000000000000007E
:10028000240811241FBECFEFD1E2DEBFCDBF00E0B6
:100290000CBF12E0A0E0B2E0E6E1FDE100E00BBF40
:1002A00002C007900D92AC36B107D9F723E0ACE657
:1002B000B2E001C01D92AF35B207E1F711E0C1E431
:1002C000D1E000E006C021970109802FFE010E94C5
:1002D000900BC034D10780E00807A9F70E944408BA
:1002E0000C94890E0C94000008950895AF92BF926B
:1002F000CF92DF92EF92FF920F931F93CF93DF93F2
:100300006C017B018B01040F151FEB015E01AE1820
:10031000BF08C017D10759F06991D601ED91FC9142
:100320000190F081E02DC6011995892B79F7C5015F
:10033000DF91CF911F910F91FF90EF90DF90CF90C1
:10034000BF90AF9008958150823108F05AC0E82FD5
:10035000F0E08827E155FE4F8F4F0C94900BCF01B2
:10036000D301C101C701CB010102D601DC01E001CB
:10037000E601EA01EE01F401F8010102FC010202CA
:100380000602809180008F7780938000089580918D
:1003900080008F7DF9CF80918000877FF5CF84B575
:1003A0008F7784BD089584B58F7DFBCF8091B00099
:1003B0008F778093B00008958091B0008F7DF9CF42
:1003C000809190008F7780939000089580919000A5
:1003D0008F7DF9CF80919000877FF5CF8091A0002D
:1003E0008F778093A00008958091A0008F7DF9CF32
:1003F0008091A000877FF5CF809120018F77809337
:1004000020010895809120018F7DF9CF80912001F6
:10041000877FF5CF1F93CF93DF93282F30E0F9012B
:10042000E65CFD4F8491F901EC50FE4FD491F90147
:10043000E255FE4FC491CC23A9F0162F81110E94E2
:10044000A301EC2FF0E0EE0FFF1FEC56FE4FA5913D
:10045000B4918FB7F894EC91111108C0D095DE23B8
:10046000DC938FBFDF91CF911F910895DE2BF8CFE2
:10047000CF93DF9390E0FC01EC50FE4F2491825526
:100480009E4FFC0184918823D1F090E0880F991F42
:10049000FC01E658FE4FA591B491FC01EC56FE4FCD
:1004A000C591D49161110EC09FB7F8948C91E22F41
:1004B000E0958E238C932881E223E8839FBFDF9110
:1004C000CF9108958FB7F894EC91E22BEC938FBF06
:1004D000F6CF90917B00977F90937B00865380644A
:1004E00080937C0080917A00806480937A00809170
:1004F0007A0086FDFCCF8091780090917900089574
:100500003FB7F8948091230390912403A091250391
:10051000B091260326B5A89B05C02F3F19F0019680
:10052000A11DB11D3FBFBA2FA92F982F8827BC014D
:10053000CD01620F711D811D911D42E0660F771F75
:10054000881F991F4A95D1F708958F929F92AF9275
:10055000BF92CF92DF92EF92FF924B015C010E941B
:1005600080026B017C010E9480026C197D098E095A
:100570009F09683E734081059105A8F321E0821A26
:100580009108A108B10888EEC80E83E0D81EE11CCE
:10059000F11C81149104A104B10429F7FF90EF909C
:1005A000DF90CF90BF90AF909F908F900895209153
:1005B000D402260F3327331F21323105ECF420916A
:1005C000F802FC0190E080E0243069F082E00895B8
:1005D000A091D4022191AC014C545D4FA40FB52FD2
:1005E000B11D2C930196861798F38091D402680F61
:1005F0006093D40280E0089581E008951092F8029B
:1006000081E08093FA021092F90261E084E10E9495
:100610000A0261E085E10E940A02E9EBF0E08081D4
:100620008E7F808380818D7F808388E48093B80073
:1006300085E48093BC000895CF93DF9391E090937D
:10064000B3028823B9F0C091B800D091BA0080916C
:10065000BC008A7B8093BC0060E084E10E940A02B7
:1006600060E085E10E940A020E94FE02D093BA0077
:10067000C093B800DF91CF9108950895E0912E03C3
:1006800080912D03E81730F4F0E0E257FD4F8081B0
:1006900090E008958FEF9FEF089590912E03809141
:1006A0002D032FEF3FEF981748F4E92FF0E0E257C2
:1006B000FD4F208130E09F5F90932E03C901089584
:1006C00080912D0390912E03891B990B0895CF9251
:1006D000DF92EF92FF920F931F93CF93DF937C01F2
:1006E000CB018A0120918D02222389F0EB016B015D
:1006F000C40ED51ECC15DD0569F06991D701ED91C9
:10070000FC910190F081E02DC7011995F3CF642F82
:100710000E94D702C801DF91CF911F910F91FF90E6
:10072000EF90DF90CF900895CF93DF931F92CDB7D6
:10073000DEB7698320918D022223F9F020912B03EB
:10074000203258F021E030E0FC013383228390E036
:1007500080E00F90DF91CF91089580912C03E82FD6
:10076000F0E0E359FD4F998190838F5F80932C03D4
:1007700080932B0381E090E0ECCF61E0CE01019605
:100780000E94D702F7CFCF92DF92EF92FF920F93A2
:100790001F93CF93DF93FC01C48121E020938D024E
:1007A000C0936C0210922C0310922B038385682B4C
:1007B00087E493E00E949403D0912B03D13208F098
:1007C00092C00E9480026B017C018091F80281112D
:1007D00065C082E08093F80281E08093FA028FEF97
:1007E0008093F70210921C03D0931B03ADE6B2E096
:1007F000EBEFF2E080E0D81385C010921D038091EA
:100800001D03CC0FC82BC0931D038091F9028130CA
:1008100009F07CC01092F9020E9480026B017C01F9
:1008200080911D038093BB008091AF029091B00234
:10083000A091B102B091B202892B8A2B8B2B99F037
:100840000E9480020091AF021091B0022091B1028B
:100850003091B2026C197D098E099F09061717079E
:1008600028073907E0F18091BC0083FDD9CF85ECE2
:100870008093BC000E9480026B017C018091F80291
:10088000823009F445C08091F7028F3F61F1809179
:10089000F702803241F18091F70225C08091AF02CA
:1008A0009091B002A091B102B091B202892B8A2B33
:1008B0008B2B09F48ACF0E9480020091AF02109125
:1008C000B0022091B1023091B2026C197D098E09FB
:1008D0009F09061717072807390708F076CF809178
:1008E000AE020E941C0310922C0310922B03109254
:1008F0008D02DF91CF911F910F91FF90EF90DF90CC
:10090000CF9008959D9191938F5F75CF85EEB0CF75
:100910008091AF029091B002A091B102B091B20269
:10092000892B8A2B8B2B09F4A9CF0E94800200917E
:10093000AF021091B0022091B1023091B2026C1955
:100940007D098E099F09061717072807390708F040
:1009500095CFC5CF089590E080E00895CF93DF93C1
:10096000ECE3E69F9001E79F300D1124820F931F67
:1009700060E17EE0469F9001479F300D569F300D0D
:100980001124820F931F90933403809333031092AA
:100990003A0310923903109236031092350381E026
:1009A00090E0909332038093310380E18093810043
:1009B0001092800082E19AE79093870080938600EE
:1009C00084E18093810086E195E0909330038093E9
:1009D0002F0381E080936F0060E08AE00E940A02AA
:1009E00061E08BE00E940A02C8ECD0E061E08CE09C
:1009F0000E940A0263E070E080E090E00E94A5029D
:100A000060E08CE00E940A0263E070E080E090E029
:100A10000E94A502219751F78091330390913403EE
:100A200018161906ECF2DF91CF910895CF93DF935A
:100A3000E1E4F2E08491EBEFF1E0D491E5EBF1E059
:100A4000C491CC2379F081110E94A301EC2FF0E036
:100A5000EE0FFF1FE05AFE4FA591B491EC91ED23EC
:100A600061E009F460E081E0682787E00E940A0203
:100A700080913103909132030197F9F4809133030F
:100A800090913403019790933403809333038091C2
:100A9000330390913403892B81F482E090E09093AA
:100AA00032038093310361E084E00E940A0261E036
:100AB0008AE0DF91CF910C940A02DF91CF910895E3
:100AC0008F929F92AF92BF920F931F93CF93DF931A
:100AD000CDB7DEB7A1970FB6F894DEBF0FBECDBF7E
:100AE00019A2423008F44AE08E010F5D1F4F842E98
:100AF000912CB12CA12CA50194010E946E0BE62F24
:100B0000B901CA01EA3044F5E05DD801EE938D01E8
:100B1000232B242B252B79F790E080E0109769F0A8
:100B2000FD0101900020E9F73197AF014A1B5B0BF3
:100B3000BD0183E593E00E947601A1960FB6F8947B
:100B4000DEBF0FBECDBFDF91CF911F910F91BF9040
:100B5000AF909F908F900895E95CD7CFFC010190F2
:100B60000020E9F73197AF01481B590BBC0183E521
:100B700093E00C9476010F931F93CF938C01C62FB3
:100B80000E94C3036C2F6460C8010E94C3036C2FD2
:100B90006B7FC8010E94C30383EC90E00197F1F7DB
:100BA000CF911F910F9108950F931F93CF93DF93D0
:100BB0008C01D62FC42F607F642B0E94BB0580E17F
:100BC000D89FB00111246C2BC801DF91CF911F91E8
:100BD0000F910C94BB0540E061E083E593E00E9437
:100BE000D4058BE39FE10197F1F7089541E00E945E
:100BF000D40581E090E00895CF92DF92EF92FF92CA
:100C000097FF18C06B017C0141E06DE283E593E042
:100C10000E94D40566277727CB016C197D098E09C0
:100C20009F094AE00E9460050196FF90EF90DF90D7
:100C3000CF9008954AE0FF90EF90DF90CF900C9412
:100C40006005CF93DF9300D000D01F921F92CDB7E5
:100C5000DEB798E0E0E0F2E0DE01119601900D923F
:100C60009A95E1F790915B03961710F46FEF690F77
:100C7000262F30E0220F331F41E050E04C0F5D1F64
:100C8000240F351FF9016081680F606840E083E53B
:100C900093E028960FB6F894DEBF0FBECDBFDF916C
:100CA000CF910C94D40585ED8093BC008091AF0268
:100CB0009091B002A091B102B091B2020796A11D2D
:100CC000B11D23E0B695A795979587952A95D1F7FD
:100CD0002091BC0024FD03C01092F80208954091B9
:100CE000AF025091B0026091B1027091B202452BF7
:100CF000462B472B69F30097A105B10541F025E389
:100D00002A95F1F700000197A109B109E1CF80917F
:100D1000AE020C941C031F920F920FB60F92112477
:100D20002F933F938F939F93AF93BF9380911F0314
:100D300090912003A0912103B091220330911E03D2
:100D400023E0230F2D3758F50196A11DB11D2093E7
:100D50001E0380931F0390932003A0932103B0935D
:100D600022038091230390912403A0912503B09145
:100D700026030196A11DB11D8093230390932403A4
:100D8000A0932503B0932603BF91AF919F918F91BC
:100D90003F912F910F900FBE0F901F90189526E84E
:100DA000230F0296A11DB11DD2CF1F920F920FB635
:100DB0000F9211240BB60F922F933F934F935F9393
:100DC0006F937F938F939F93AF93BF93EF93FF9313
:100DD000E0912F03F09130031995FF91EF91BF91AE
:100DE000AF919F918F917F916F915F914F913F91C3
:100DF0002F910F900BBE0F900FBE0F901F90189564
:100E00001F920F920FB60F9211240BB60F922F93D1
:100E10003F934F935F936F937F938F939F93AF9382
:100E2000BF93EF93FF938091B900887F803609F4D8
:100E30004DC008F040C0883209F4A9C028F58031BF
:100E400009F49DC0C8F4882309F4FBC0883009F474
:100E500096C0FF91EF91BF91AF919F918F917F913C
:100E60006F915F914F913F912F910F900BBE0F901B
:100E70000FBE0F901F901895883109F488C08032FA
:100E800041F78093F70214C0803409F49DC040F408
:100E90008033B9F38833E9F68093F70285ECB0C06C
:100EA000803509F485C0883509F496C0883489F600
:100EB0000E945306CECF883909F48CC038F58837A4
:100EC00029F050F4883611F0803719F683E08093CA
:100ED000F8021092F60257C0883809F47BC08039B6
:100EE00019F0803809F0B5CF8091F602803208F011
:100EF00071C0E091F60281E08E0F8093F60280913E
:100F0000BB00F0E0EA52FD4F80833DC0803B39F0EA
:100F1000E0F4803A09F479C0883A09F09ACF84E085
:100F20008093F8021092D5021092D402E091290326
:100F3000F0912A0319958091D40281110FC081E0AC
:100F40008093D4021092B40209C0803C09F4A6CF69
:100F5000883C09F4A3CF883B09F07BCFE091D50210
:100F600081E08E0F8093D502F0E0EC54FD4F80813C
:100F70008093BB009091D5028091D40229C08091CA
:100F80001D038093BB0085EC8093BC0062CF9091E1
:100F90001C0380911B03981758F5E0911C0381E016
:100FA0008E0F80931C03F0E0E550FD4F8081E9CF68
:100FB000E0911C0381E08E0F80931C038091BB00A5
:100FC000F0E0E550FD4F808390911C0380911B035E
:100FD0009817C8F285E8D8CFE0911C0381E08E0F06
:100FE00080931C038091BB00F0E0E550FD4F8083AF
:100FF0008091FA0281115CCF81E08093F90284EA4A
:101000008093BC001092F80224CF85EC8093BC0042
:101010001092F8028091F602803230F4E091F602EC
:10102000F0E0EA52FD4F10826091F60270E0E0912C
:101030002703F091280386ED92E019951092F602AD
:1010400008CF1092F70234CFE7E4F3E01382128264
:1010500088EE93E0A0E0B0E084839583A683B78315
:101060008CE092E091838083E3E5F3E013821282C7
:101070008EE192E09183808387E2848384E181879B
:1010800084E0828713860895789484B5826084BD55
:1010900084B5816084BD85B5826085BD85B581607C
:1010A00085BD80916E00816080936E0010928100FA
:1010B00080918100826080938100809181008160B5
:1010C0008093810080918000816080938000809176
:1010D000B10084608093B1008091B0008160809302
:1010E000B000809191008260809391008091910086
:1010F0008160809391008091900081608093900046
:101100008091A10082608093A1008091A100816004
:101110008093A1008091A00081608093A0008091C5
:10112000210182608093210180912101816080935F
:1011300021018091200181608093200180917A00BB
:10114000846080937A0080917A00826080937A0034
:1011500080917A00816080937A0080917A00806823
:1011600080937A001092C10061E08CE00E94380206
:1011700061E08BE00E94380261E08AE00E94380260
:1011800060E088E00E94380261E087E00E94380257
:1011900010922E0310922D0310922C0310922B0309
:1011A0000E94FE0284E791E090932A038093290332
:1011B00085E791E0909328038093270310925803CA
:1011C00080915D03823018F098E0909358038093EB
:1011D0005B0362E370E080E090E00E94A502609112
:1011E0005E0383E593E00E94C30368EE73E080E052
:1011F00090E00E94A50260E383E593E00E94BB05B6
:10120000CBE4D6E4CE010197F1F760E383E593E008
:101210000E94BB052197F1F760E383E593E00E940C
:10122000BB0583E592E00197F1F760E283E593E087
:101230000E94BB0560915803606240E083E593E043
:101240000E94D40584E08093590340E06CE083E57C
:1012500093E00E94D4050E94EB0582E080935A033C
:1012600040E066E083E593E00E94D40540E062E060
:1012700083E593E00E94D4058BE39FE10197F1F7AA
:1012800088E080935E0360E083E593E00E94C303FF
:1012900086E292E00E94AE0568EE73E080E090E0A6
:1012A0000E94A5020E94EB058DE292E00E94AE052D
:1012B00064EF71E080E090E00E94A5020E94EB05DF
:1012C000AA24AA9433E0B32E48E1242ECC24C3945C
:1012D000D12C90E4492E92E0592E2CE3322E60E07E
:1012E00080E00E94210663E372E08DE393E00E94B8
:1012F000AC0B8DE393E00E94AE0562E081E00E94BA
:1013000021061F921F921F921F921F921F925F929F
:101310004F928DE393E09F938F930E94B30B8DE3E5
:1013200093E00E94AE0586E30E94690290933C031D
:1013300080933B03835B91092DB73EB7265F3F4FF8
:101340000FB6F8943EBF0FBE2DBF039720F4D09286
:101350003A03C0923903F12CE12C10E000E0D0E018
:10136000C0E08DE3682E83E0782E80903903909062
:101370003A0331E08316910409F05FC186E30E94CD
:10138000690290933C0380933B0360E084E00E94F9
:101390000A0262E081E00E942106FF92EF921F9311
:1013A0000F93DF93CF9321E532E03F932F937F920A
:1013B0006F920E94B30B8DE393E00E94AE05809183
:1013C0003B0390913C03835B91092DB73EB7265FA9
:1013D0003F4F0FB6F8943EBF0FBE2DBF039718F5D1
:1013E00090923803809237038091370390913803AD
:1013F000019781F486E30E94690290933C038093F5
:101400003B03835B9109039778F3109238031092A2
:101410003703EACF8091350390913603019690937C
:1014200036038093350380913503909136038130E4
:10143000910511F00497C9F587E30E9469029C01A8
:10144000329EC001339E900D1124B5010E945A0BAB
:10145000EB0177FF02C0C05CDF4F61E081E00E94DA
:101460002106CA30D10524F48FE592E00E94AE0532
:10147000BE010D2E000C880B990B0E94FC0586E323
:101480000E94690290933C0380933B039C01235B81
:1014900031092330310548F0815D9140049718F6F9
:1014A000A701B801CE010E94AE048091350390914E
:1014B00036030297C9F587E30E9469029C01329EB8
:1014C000C001339E900D1124B5010E945A0B8B016F
:1014D00077FF02C0005C1F4F61E086E00E9421069A
:1014E0000A30110524F48FE592E00E94AE05B801A0
:1014F000012E000C880B990B0E94FC0586E30E94CC
:10150000690290933C0380933B039C01235B310968
:101510002330310548F0815D9140049730F6A701F2
:10152000B801CE010E94AE0480913503909136033C
:101530000397B9F587E30E9469029C01229EC001CE
:10154000239E900D1124B5010E945A0B7B0177FF59
:1015500003C03CE1E30EF11C61E08AE00E94210639
:101560008AE0E816F10424F48FE592E00E94AE05CB
:10157000B7010F2C000C880B990B0E94FC0586E329
:101580000E94690290933C0380933B039C01235B80
:1015900031092330310508F076C0D0923603C0926D
:1015A000350380913B0390913C03815D914004970A
:1015B00008F074C0309EC001319E900D1124C80FF8
:1015C000D91F20E13EE0E29EC001E39E900DF29E15
:1015D000900D1124C80FD91FD0933403C093330347
:1015E0000E94EB0564EF71E080E090E00E94A502AC
:1015F0006091330370913403072E000C880B990B14
:101600000E94FC05D0923203C092310380E18093A6
:1016100081001092800082E19AE790938700809386
:10162000860084E18093810086E195E09093300309
:1016300080932F0381E080936F008091330390911A
:101640003403892BC1F480913103909132030297C6
:1016500091F40E94EB0581E692E00E94AE0568EEEF
:1016600073E080E090E00E94A5020E94EB051092DA
:1016700032031092310380E090E0892B09F42FCEE1
:101680000E94000026CE815D9140049708F04CCF67
:10169000A701B801CE010E94AE0483CF809135032B
:1016A0009091360304970CF460CED0923603C0922A
:1016B00035035BCE97FB072E16F4009407D077FD19
:1016C00009D00E94980B07FC05D03EF490958195B7
:1016D0009F4F0895709561957F4F0895A1E21A2E4E
:1016E000AA1BBB1BFD010DC0AA1FBB1FEE1FFF1FC6
:1016F000A217B307E407F50720F0A21BB30BE40B16
:10170000F50B661F771F881F991F1A9469F760955C
:101710007095809590959B01AC01BD01CF01089516
:10172000EE0FFF1F881F8BBF0790F691E02D1994D5
:10173000AA1BBB1B51E107C0AA1FBB1FA617B707F7
:1017400010F0A61BB70B881F991F5A95A9F7809513
:101750009095BC01CD010895FB01DC0101900D9233
:101760000020E1F708950F931F93CF93DF93CDB738
:10177000DEB72E970FB6F894DEBF0FBECDBF0E8931
:101780001F8986E08C831A8309838FEF9FE79E83EE
:101790008D83AE01465E5F4F688D798DCE010196D7
:1017A0000E94E30B2F813885020F131FF80110826E
:1017B0002E960FB6F894DEBF0FBECDBFDF91CF914E
:1017C0001F910F9108952F923F924F925F926F92C7
:1017D0007F928F929F92AF92BF92CF92DF92EF92C1
:1017E000FF920F931F93CF93DF9300D000D000D0D0
:1017F0001F921F92CDB7DEB77C013B018A01FC012D
:1018000017821682838181FFDDC1CE0101965C01C2
:10181000F7019381F30193FD859193FF81913F013E
:10182000882309F453C1853239F493FD859193FFE0
:1018300081913F01853229F4B70190E00E94FB0DB0
:10184000E7CF912C212C312CFFE1F31538F08B32AE
:1018500011F190F4803209F1833229F137FC3CC058
:1018600020ED280F2A3050F536FE20C08AE0989EE1
:10187000200D1124922E06C08D3291F0803371F725
:10188000689430F8F30193FD859193FF81913F01B6
:101890008111DACF21C0689431F8689432F8F2CF20
:1018A000689433F8EFCF689434F8ECCFEAE02E9EDA
:1018B000200D1124222E689435F8E4CF8E3229F4BD
:1018C00036FC04C1689436F8DDCF8C3619F4689480
:1018D00037F8D8CF8836B1F2982F9F7D9554933042
:1018E000E0F08336A1F18337C1F1833509F063C09D
:1018F0002801F2E04F0E511CF801C080D180692D03
:1019000070E036FC02C06FEF7FEFC6010E94E50D6C
:101910004C01689437F882010AC00C5F1F4FFFE347
:10192000F98388248394912C6501E89437F833FE79
:101930002DC0522C8114910471F5552009F468CF03
:10194000B70180E290E00E94FB0D5A94F6CFF801B7
:10195000808189830E5F1F4FE4CF2801F2E04F0E94
:10196000511CF801C080D180692D70E036FC02C0A6
:101970006FEF7FEFC6010E94F00D4C018201D5CFC1
:10198000B70180E290E00E94FB0D2A94281419040C
:1019900009F0B0F7CECFF60137FC859137FE819183
:1019A0006F01B70190E00E94FB0D51105A94F1E0D5
:1019B0008F1A9108BFCF843619F0893609F077C0A5
:1019C000F80137FE6BC060817181828193810C5F69
:1019D0001F4FF32DFF763F2E97FF09C090958095FE
:1019E000709561957F4F8F4F9F4F689437F82AE02D
:1019F00030E0A5010E942B0EC82ECA188C2C432C57
:101A000036FE0CC0E89440F8C91440F434FE05C01A
:101A100032FC03C0F32DFE7E4F2E892C44FEAAC05B
:101A2000FE01EC0DF11D8081803309F09CC0242D56
:101A3000297E422E842D8870582E43FCAAC040FE79
:101A4000A4C09C2C821418F42C0C922C981844FEE0
:101A5000A6C0B70180E390E00E94FB0D42FE09C0E2
:101A600088E790E041FE02C088E590E0B7010E945F
:101A7000FB0DC91408F49FC0CA94D12C9FEFC91A5A
:101A8000D90ACA0CDB1CF60182916F01B70190E004
:101A90000E94FB0DAC14BD04B1F74FCF6081718182
:101AA000072E000C880B990B0E5F1F4F92CFD32C83
:101AB000E894D4F82AE030E08537E1F1232D297F3E
:101AC000D22E8F36A9F1F0F4883551F1F7018681D5
:101AD00097812B960FB6F894DEBF0FBECDBFDF9176
:101AE000CF911F910F91FF90EF90DF90CF90BF901B
:101AF000AF909F908F907F906F905F904F903F90AE
:101B00002F900895803749F0883701F7D4FE02C03E
:101B10006894D2F820E130E00DC06894D4F8F6CF94
:101B200034FE03C0822F8660D82E20E132E002C04E
:101B300028E030E0F801D7FE0FC06081718182811A
:101B400093810C5F1F4FA5010E942B0EC82ECA184F
:101B50003D2CE89437F852CF6081718190E080E0AD
:101B60000E5F1F4FF0CF42FC02C0839463CF83947B
:101B7000839460CF842D867809F45CCFF6CFB701CB
:101B800080E290E00E94FB0D83948214C0F3512CFC
:101B90005ECF522C5818821408F459CFF8CF842DF8
:101BA000867809F466CF8BE241FE80E247FC8DE245
:101BB000B70190E05CCFB70180E390E00E94FB0D9D
:101BC0009A9457CF8FEF9FEF84CFFC01059061501F
:101BD00070400110D8F7809590958E0F9F1F089543
:101BE000FC016150704001900110D8F780959095EC
:101BF0008E0F9F1F08950F931F93CF93DF93182F7E
:101C0000092FEB018B8181FD09C01FEF0FEF812FA1
:101C1000902FDF91CF911F910F91089582FF14C0F3
:101C20002E813F818C819D81281739073CF4E88102
:101C3000F981CF0101969983888310838E819F81DA
:101C400001969F838E83E3CFE885F985812F1995CF
:101C5000892BA1F3DACFFA01AA27283051F12031DC
:101C600081F1E8946F936E7F6E5F7F4F8F4F9F4F30
:101C7000AF4FB1E03ED0B4E03CD0670F781F891F72
:101C80009A1FA11D680F791F8A1F911DA11D6A0F40
:101C9000711D811D911DA11D20D009F468943F91F3
:101CA0002AE0269F11243019305D3193DEF6CF01F2
:101CB0000895462F4770405D4193B3E00FD0C9F7B8
:101CC000F6CF462F4F70405D4A3318F0495D31FD25
:101CD0004052419302D0A9F7EACFB4E0A695979578
:101CE000879577956795BA95C9F70097610571054E
:101CF00008959B01AC010A2E069457954795379598
:101D00002795BA95C9F7620F731F841F951FA01DF1
:061D10000895F894FFCFD6
:101D16000000400014005400000000009403670314
:101D2600AB043D0360034D033E0300000000F605CF
:101D36007601AB04AA047072756562610054696D20
:101D460065720020736567206D696E20686F72008A
:101D560020302564203A20302564203A203025643E
:101D660000202564203A202564203A20256400308E
:0C1D76000074696D65206F7665720000D6
:00000001FF
